:060000000A128A11122809
:10000800FE00030EF1000408F2000A08F300831250
:1000180003137F08F4000A128A11BF280A128A11F2
:1000280015280A128A11ED200A128A11F900831381
:100038002030840041300A128A11E520F80183013A
:100048000A128A112728BF30831603138100D6307D
:100058008700831203130714403083160313940098
:1000680021308312031394000830831603138C0085
:10007800831203138D01D0308B00F13083160313E4
:100088008600831203138610061186110D30F700BF
:10009800AF30F600B630F500F50B5028F60B5028B7
:1000A800F70B502800000A30F50075088312031377
:1000B800A0000710F801F80AF90120309300790828
:1000C800031D6A2867286828000063288312031321
:1000D800211C7228831203138615752883120313B3
:1000E800861106150630F7001330F600AD30F5001E
:1000F800F50B7C28F60B7C28F70B7C2883288312C9
:10010800031306153830F5007508A0002C30F500EB
:100118007508A1002B30F5007508A2002A30F500FB
:100128007508A30007100430F5007508F800F901F8
:10013800A03093007908031DA528A228A328000051
:100148009E2883120313241CAD28831203138615DB
:10015800B02883120313861106150630F7001330F2
:10016800F600AD30F500F50BB728F60BB728F70BFE
:10017800B728BE2883288B188B108C1DDA288C1181
:100188001308F0007808203E84007008831380006C
:1001980078080319D7280130F8027808203E84002F
:1001A80000089300DA28F901F90A07147408FF0017
:1001B80073088A0072088400710E8300FE0E7E0E9A
:1001C800090064008001840A040603190034040647
:0401D800E6280134E0
:02400E007AFF37
:00000001FF
